:100000000C9434000C9449000C9449000C94490061
:100010000C9449000C9449000C9449000C9449003C
:100020000C9449000C9449000C9449000C9449002C
:100030000C9449000C9449000C9449000C9449001C
:100040000C9449000C9449000C9449000C9449000C
:100050000C9449000C9449000C9449000C944900FC
:100060000C9449000C94490011241FBECFEFD8E036
:10007000DEBFCDBF11E0A0E0B1E0E4E2F1E002C0FC
:1000800005900D92A430B107D9F70E944D000C9451
:1000900090000C9400000000FFCFEF92FF921F939E
:1000A000259A80E090E022E44FE050E036E861E0FD
:1000B00070E02D9AFC01DC010FC01170EF5FFF4F63
:1000C000AF4FBF4FE0900201F0900301E0900001BC
:1000D000F0900101103041F011E0EF33F207A40776
:1000E000B50758F3112DE9CF2D98FC01DC0110C0A4
:1000F0001170EF5FFF4FAF4FBF4FE0900201F090E4
:100100000301E0900001F0900101103009F4D1CF1B
:1001100011E0EF39F307A607B70750F3112DE8CF29
:04012000F894FFCF81
:0401240000000000D7
:00000001FF
